:1000000000200020F9000000B1190000751900005F
:1000100075190000751900007519000075190000A8
:10002000751900007519000075190000B11900005C
:10003000B119000075190000B11900006519000020
:10004000B1190000B1190000B1190000B119000088
:10005000B1190000B1190000B1190000B119000078
:10006000B1190000B1190000B1190000B119000068
:10007000B1190000B1190000B1190000B119000058
:1000800065200000B1190000ED260000B119000044
:10009000092C0000B1190000B1190000B1190000CD
:1000A000B1190000B1190000B1190000B119000028
:1000B000B1190000B1190000B1190000B119000018
:1000C000B1190000B1190000B1190000CD0B0000FA
:1000D000B1190000B1190000B1190000B1190000F8
:1000E000B1190000B1190000B1190000B1190000E8
:1000F000B1190000B1190000554B4CF2205210B557
:100100001A804DF628121A8000BF00BF01F054FC7F
:10011000504B514A1A60514A5A60A3F53043283B6C
:100120001A6812F4807204D14D490A604FF4A85243
:100130001A604C4B1A78110703D51A7842F008025E
:100140001A70494B494C4A482A221A70494A0023DE
:100150009918A14203D2195899500433F8E7464B35
:10016000464900228B4202D243F8042BFAE7444866
:10017000444900235A581A500433F82BFAD1424B01
:10018000424A802103F8011B9342FBD1404B3C4A79
:100190001A60404B8A221A70A3F5805324225A70A9
:1001A000A0221A709A799207FCD59A79D406FCD4C9
:1001B000394A937903F00C03082B374BF9D103220A
:1001C0001A7140225A719A799006FCD5324A917977
:1001D000314B4906FBD5314A31491160022151604A
:1001E00020221A709A7902F00C020C2AFAD12D4BB7
:1001F0002D4A1A602D4B4BF67F321A6000225A604E
:10020000072243F8042C2A4AC3F80C2D62B600F0EA
:10021000A9FB134B1B68DA0705D5264800F0F6FA50
:10022000254B264A1A60264B1B785B0609D5224CC3
:10023000224A2368934204D11E4800F0E7FA0023C3
:10024000236003F0F9FB01F0BDFB01F039FAFEE792
:100250000E20054038800440823F04000100002B3E
:1002600014D0034002D0074000E007408CEEFF1F8F
:10027000DC82000060E5FF1F8CEEFF1F58F2FF1FBD
:1002800000E1FF1F0000000000E400E02EE400E0B9
:1002900008ED00E000500640004006404480044065
:1002A0000000131104800440C010050014E000E0B9
:1002B00000002020990BB7581CE00340A5C3945AB6
:1002C00000F00740FFFFFFFFFFFFFFFFFFFFFFFF03
:1002D000FFFFFFFFFFFFFFFFFFFFFFFFFFFFFFFF2E
:1002E000FFFFFFFFFFFFFFFFFFFFFFFFFFFFFFFF1E
:1002F000FFFFFFFFFFFFFFFFFFFFFFFFFFFFFFFF0E
:10030000FFFFFFFFFFFFFFFFFFFFFFFFFFFFFFFFFD
:10031000FFFFFFFFFFFFFFFFFFFFFFFFFFFFFFFFED
:10032000FFFFFFFFFFFFFFFFFFFFFFFFFFFFFFFFDD
:10033000FFFFFFFFFFFFFFFFFFFFFFFFFFFFFFFFCD
:10034000FFFFFFFFFFFFFFFFFFFFFFFFFFFFFFFFBD
:10035000FFFFFFFFFFFFFFFFFFFFFFFFFFFFFFFFAD
:10036000FFFFFFFFFFFFFFFFFFFFFFFFFFFFFFFF9D
:10037000FFFFFFFFFFFFFFFFFFFFFFFFFFFFFFFF8D
:10038000FFFFFFFFFFFFFFFFFFFFFFFFFFFFFFFF7D
:10039000FFFFFFFFFFFFFFFFFFFFFFFFFFFFFFFF6D
:1003A000FFFFFFFFFFFFFFFFFFFFFFFFFFFFFFFF5D
:1003B000FFFFFFFFFFFFFFFFFFFFFFFFFFFFFFFF4D
:1003C000FFFFFFFFFFFFFFFFFFFFFFFFFFFFFFFF3D
:1003D000FFFFFFFFFFFFFFFFFFFFFFFFFFFFFFFF2D
:1003E000FFFFFFFFFFFFFFFFFFFFFFFFFFFFFFFF1D
:1003F000FFFFFFFFFFFFFFFFFFFFFFFFFFFFFFFF0D
:10040000FFFFFFFFFFFFFFFFFFFFFFFFDEF9FFFF23
:1004100010B5054C237833B9044B13B10448AFF33E
:1004200000800123237010BD8CEEFF1F0000000030
:10043000D482000008B5064B1BB106480649AFF34D
:1004400000800648036813B1054B03B1984708BD07
:1004500000000000D482000090EEFF1F8CEEFF1F12
:10046000000000002DE9F0418EB0DFF83C814046ED
:1004700000F0C6F83F4E304600F0EAF83E4F3846EE
:1004800000F020F93D4C204600F04AF94FF4FA60A4
:1004900000F052FA00F0A8F80246394D28463949D2
:1004A00001F000F998F8002098F8013098F802104F
:1004B000009198F8031001912846334901F0F2F8B1
:1004C00000F0AAF802462846304901F0EBF83278ED
:1004D0007378B1780091F178019131790291717955
:1004E000039128462A4901F0DDF800F0C9F80246D8
:1004F0002846284901F0D6F83A687B68B968009127
:10050000F96801912846244901F0CCF800F0F0F890
:1005100002462846214901F0C5F822786378A1787F
:100520000091E17801912179029161790391A1799A
:100530000491E1790591217A0691617A0791A17A76
:100540000891E17A0991217B0A91617B0B91A17B52
:100550000C91E17B0D912846114901F0A3F800F0C0
:1005600015F9024628460F4901F09CF80EB0BDE887
:10057000F08100BFB8EEFF1FA8EEFF1FC0EEFF1F07
:1005800038F0FF1F507C0000687C0000947C000065
:10059000B07C0000E47C0000FC7C0000347D0000A6
:1005A0005C7D0000C07D0000D0EEFF1F704700BFE3
:1005B00072B60A4B70221A704121094A11700F213C
:1005C000013A117080221A701A46137813F0800FC6
:1005D000FBD0044B186862B6704700BF00000240B1
:1005E000070002400800024008B5FFF7E1FF034B97
:1005F00098429CBF00EB8000400008BD7F969800A9
:1006000010B50446FFF7D4FF030E2370030C63708C
:10061000030AA370E07010BD10B584B003A8FFF703
:10062000EFFF094C9DF80C209DF80D309DF80E1041
:1006300000919DF80F1001912046044903F06EFFD0
:10064000204604B010BD00BFD4EEFF1FE47D0000C3
:1006500010B582B0044601A8FFF7D2FF042323702F
:10066000E9236370E523A3709DF80530E3709DF8DE
:10067000063023719DF80730637102B010BD00BFD2
:1006800010B586B004A8FFF7E3FF0C4C9DF81020CE
:100690009DF811309DF8121000919DF813100191F2
:1006A0009DF8141002919DF81510039120460449FD
:1006B00003F034FF204606B010BD00BFE0EEFF1F80
:1006C000F87D0000064B1B680360064B1B68436007
:1006D000054B1B688360054B1B68C360704700BFF8
:1006E00054800440588004405C8004406080044092
:1006F00010B586B002A8FFF7E5FF074C049B0093F6
:10070000059B019320460549029A039B03F006FFCF
:10071000204606B010BD00BFF4EEFF1F187E00009B
:1007200010B582B004466846FFF792FF154BDA78A1
:1007300022705A8862701A68120AA2701B68E370ED
:10074000114BDA7822715A8862714022A2711A68BC
:10075000120AE271802222721B6863729DF80030D7
:10076000A3729DF80130E3729DF8023023739DF867
:10077000033063739DF80430A3739DF80530E37371
:1007800002B010BD5C8004406080044010B592B09F
:100790000EA8FFF7C5FF1B4C9DF838209DF8393097
:1007A0009DF83A1000919DF83B1001919DF83C1086
:1007B00002919DF83D1003919DF83E1004919DF823
:1007C0003F1005919DF8401006919DF8411007914A
:1007D0009DF8421008919DF8431009919DF844102E
:1007E0000A919DF845100B919DF846100C919DF8CB
:1007F00047100D912046044903F090FE204612B0A8
:1008000010BD00BF18EFFF1F2C7E0000044B00221C
:100810001A6004490A60044A106010221A60704786
:1008200014D0034004D0034000D0034021281ED838
:100830000F4B53F8303093F8802212F0FF0F08D09E
:1008400019B1012283F880207047012283F800212A
:100850007047074B03EBC000436821B11A6842F0B0
:1008600003021A6070471A6822F002021A60704789
:10087000747E000021283AD81D4B03EBC0035B684F
:10088000012919D0042925D0194A52F83020002016
:1008900082F8800219B94FF480721A6070470229F9
:1008A00003D140F203121A60704703290CBF4FF4C2
:1008B000817200221A6070470D4A52F830200121DF
:1008C00082F880124FF4A2721A601A6822F0200295
:1008D0001A607047064A52F83020012182F88012CF
:1008E0004FF4A2721A601A6842F020021A60704730
:1008F000747E000072B60C4B1B680C4A12680C49DF
:10090000096862B611F0806F02D0322B88BF0132C5
:10091000C3F53B437F330749A1FB03035B094FF456
:100920007A7000FB0230704718E000E040EFFF1FD4
:1009300004ED00E0ABAAAAAA38B50546FFF7DAFF36
:10094000044625B938BD013D0AD004F57A74FFF795
:10095000D1FF001BB0F57A7FF5D200F0E9FEF6E793
:1009600038BD00BF10B5204B4FF480721A604FF4B1
:1009700000721A604FF480621A604FF400621A60CD
:100980004FF480521A600020184B18604BF6FF712C
:10099000043319602823164A1360083213600832A2
:1009A0001360083213600832136008321360083293
:1009B00013600832136009220E4C226004F5805443
:1009C000043420600C4801600C490B6008310B6056
:1009D0000B4B1A6000F068FF4FF4C870FFF7ACFFD4
:1009E00000F074FC10BD00BF04E100E0048003408F
:1009F0000C80034000800340089003400C900340AB
:100A00000090034030B40E4B1B7843F002020D4CB3
:100A100004EBC20460600C48007800280CBF8824F6
:100A2000C82444EA0141074D45F8321080F0010026
:100A3000054A107083F00103014A137030BC7047FF
:100A4000ACEFFF1F00E0FF1F25F0FF1F10B4431E97
:100A5000032B11D872B60A4A52F8230050B14268EB
:100A6000074941F82320074A32F813400188611AE8
:100A700022F8131062B600E000205DF8044B7047C6
:100A80009CEFFF1F40F2FF1F013803280DD872B6FC
:100A9000074B53F820302BB1002001305B68002B4E
:100AA000FBD100E0002062B670470020704700BF15
:100AB000F0EFFF1F38B572B601231B491B4C5A18C3
:100AC00012F8012C12F0080F24D09A0054F832507A
:100AD0006DB9164B03EBC20108304860144943F866
:100AE0003210144B1A78013A1A7062B638BD42F0CF
:100AF000010254F832506DB90C4B03EBC2010830BF
:100B000048600D4943F832100A4B1A78013A1A70BE
:100B100062B638BD0133052BD1D162B60022054B38
:100B20001A7000F035FC38BDB07F000000E0FF1FF8
:100B3000880040001AF0FF1FC800400010B4431E98
:100B4000032B37D8400140F010001C4A104472B605
:100B50001B4AD25C032A09D8DFE802F019021B0500
:100B60000830022216E00830042213E0154A52F839
:100B700023201AB9134A42F8231003E0124A52F80C
:100B800023205160104A42F8231062B612E003227B
:100B900000E005220A4CE25401F10803436000F032
:100BA0000803002B0CBF8823C8230A8843EA0243AA
:100BB000036062B65DF8044B704700BF00E0FF1FA2
:100BC00058EFFF1FF0EFFF1F00F0FF1F2DE9F84F58
:100BD000A34CDFF8E092DFF8E0A2DFF8E0B225787E
:100BE000EDB215F0040F1DD09E4B1B7813F0FF0FD4
:100BF00016D09D4B1B7803F0FF022BB1531EDBB2C6
:100C0000994A137003B900BE984B1B7803F0FF029A
:100C100033B1531EDBB2954A13700BB900F016FDC9
:100C20000423237015F0080F00F0E48299F80030D7
:100C3000DBB21D0940F021828D4D9E0805EBC603F5
:100C40005A6855F83630C3F38303013B0C2B00F28E
:100C50001082DFE813F0CB01CB010E020E020E0270
:100C60000E020E020E02E8010E020E020E020D002E
:100C7000804913680B6052684A607F4A45F8362005
:100C800000227E490A607A490A618A6101217C4A10
:100C900011709BB240F28162934218D8B3F5D06FC5
:100CA0002ED2B3F5817F00F01E8106D8802B00F094
:100CB000C980822B00F0CC8066E140F20232934280
:100CC00000F02681B3F5A06F00F062815CE142F292
:100CD0002102934200F0868107D8B3F5086F00F037
:100CE000AB80B3F5106F11D04EE142F22122934256
:100CF00000F0418142F22132934200F0498143E108
:100D0000604B5D68002D40F0188130E1594B9A78B6
:100D1000544B1A70564D05F180062B6A13F0800F64
:100D200003D0686A083800F033FB0835B542F4D1C7
:100D3000DFF88C8100263746534AB05828B1456801
:100D400000F026FB0DB12846F9E700234E49735009
:100D50004E4AB3504E4BF05828B1456800F018FB8E
:100D60000DB12846F9E7002349497350494AB35069
:100D700028F8023F484BFB5C023B032B0AD8DFE814
:100D800003F0020602060022434BDA5502E001227C
:100D9000414BDA5501370436102ECDD100223F4B9E
:100DA0001A7001253E4EDFF81C81314F05EB080318
:100DB00013F8013C06F8043B13F0080F2DD000F0A7
:100DC000C7FA48B1A90007EB451200F108035360C8
:100DD000344A47F8312007E0AB00002247F83320BF
:100DE0002E4B1A7801321A7000F0B2FA58B1AB00EB
:100DF00043F0010307EBC30100F108024A601E4AF9
:100E000047F8332009E0AB0043F00103002247F824
:100E10003320224B1A7801321A70AA0042F00201E4
:100E2000002347F8313042F0030247F832300135F1
:100E30001D4B9E42BAD11EE20A4B1B781B4D2B70F4
:100E40000127AAE0194D00232B706B700227A4E044
:100E5000084B9B88042B37D90F22154B1A70C1E021
:100E60008020074024F0FF1FADEFFF1F26F0FF1F7B
:100E700000E0FF1F10F0FF1FC800400044EFFF1FFD
:100E800025F0FF1FB47F00009CEFFF1F48EFFF1FFE
:100E9000F0EFFF1F00F0FF1F58EFFF1F1AF0FF1FBA
:100EA000C420074088004000D42007401CF0FF1FEA
:100EB000C02007409020074094200740982007401A
:100EC0003EF2FF1FB07F0000A04A00211170517058
:100ED0009F4A12F8233013F0020F5CD09B4D012380
:100EE0002B70022759E09B4B9B8803F07F03042B58
:100EF00002DC984A52881AB10F22954B1A7071E0A1
:100F0000934A12F8231021F0020102F82310B2E1F3
:100F1000904B9B8803F07F03042B02DC8D4A5288A0
:100F20001AB10F228A4B1A705CE0894A12F823101A
:100F300041F0020102F823109DE1864B5E889F88F4
:100F4000854BA3F10C02114633F80C0CB04209D1C9
:100F500033F80A0CB84205D1360A032E0CBF2F789D
:100F600017891AE00D690C330C32002DEBD10F22DA
:100F7000774B1A7036E0794B1A68794B1A60754BCB
:100F80009A78784B1A7076E10F22714B1A7029E02B
:100F900000273D4601E002276C4D6E4BDB889F42E7
:100FA00028BF1F46402F34BF3E46402628463146C4
:100FB000FFF728FD3544BF1B03D13F2E00F26081AF
:100FC00010E0402F34BF3E46402628463146FFF70A
:100FD00019FD3544BF1B01D13F2E03D9624B1D6063
:100FE000624B1F8001238AF8003042E0594B198878
:100FF00042F22103994212D15D4BD81D12F8011B18
:1010000003F8011F8342F9D15A4B1B68862B02D18A
:101010000F22594B1A7000200146FFF7F3FC574B83
:1010200045F8363025E0504B1E68BEB14F4FB7F83B
:101030000080B8F1400F34BF454640253046294670
:10104000FFF7E0FCC5EB08039BB23B800BB9402DDA
:1010500001D1354400E00025434B1D603D4B1B880A
:10106000B3F5A06F05D13B4B00225A709B788BF8EB
:10107000003001238AF80030B9E0414E9F0806EBAA
:10108000C708D8F80420A2F10800013DEDB213F022
:10109000080F47D000F07CF93A4B53F825304BB39A
:1010A0005A68384941F8252003F10802C8F804209D
:1010B000354A525D032A12D8DFE802F002060A0E12
:1010C0000321314A51550AE002212F4A515506E0C9
:1010D00005212D4A515502E004212B4A515518F0A3
:1010E000080F0CBF8822C8221B8842EA034346F837
:1010F00037307CE0244B5B5D032B0BD8DFE803F03B
:10110000777702060022204B5A5570E001221E4BD1
:101110005A556CE018F0080F0CBF022203221A4B3C
:101120005A5564E056F837301B0C22F8083C002B67
:1011300055D0002322F8063C42F8043C134B53F8E8
:1011400025302BBB114B43F8250025E01CF0FF1F79
:10115000C020074010F0FF1FC07F000040EFFF1FBE
:1011600050F2FF1F34F0FF1F44EFFF1F18F0FF1F66
:1011700047F2FF1F48F2FF1FADEFFF1FC8004000FE
:1011800000E0FF1FF0EFFF1F58EFFF1F9CEFFF1F56
:101190003F4B53F8253058603D4B43F825003D4BFD
:1011A00033F8151032F8082C0A4423F8152000F003
:1011B000CFF860B100F10803C8F8043018F0080F48
:1011C000354B364A08BF134646F837300FE0002348
:1011D00046F83730324B1A7801321A7007E018F0AF
:1011E000080F2D4B2D4A08BF134646F83730082309
:1011F0002370F4E415F0010F22D02A4902230B706A
:101200000022294B1A70294B24481860284C5C6036
:1012100098602848D8601A619A610D20264B187092
:10122000FF23264803700838037018300270244AE0
:1012300013709F22234B1A7001230B70BDE8F88FA7
:1012400015F0800F05D00D221B4B1A708022403BF9
:101250001A7015F0020F06D0184B1A78D2B21A7015
:101260000222083B1A7015F0100F0ED01022164BF8
:101270001A70BDE8F88F00200146FFF7C3FBB1E606
:1012800028460021FFF7BEFBACE6BDE8F88F00BFA3
:1012900048EFFF1F40F2FF1FC800400088004000D9
:1012A0001AF0FF1F94200740ACEFFF1F00E0FF1F64
:1012B0005CEFFF1FB0EFFF1FC020074088200740F2
:1012C0008C200740842007408020074008B501F0AB
:1012D0000FFD002319491A465A50C81842600833B6
:1012E000882BF9D1164B1A6842F480221A60134BEE
:1012F000C3F30721134A1170C3F30741143211706D
:101300001B0E04321370FF23343A1370083213702B
:10131000783A137001238432137000216C321170FB
:101320007C3A13707022084B1A700822A3F21F3304
:101330001A601022054B1A7008BD00BF00E0FF1FA5
:10134000348004409C20074023E400E0082107404B
:1013500072B60D4B1A68B2FA82F30B2B02D962B641
:10136000002070474FF00041D94022EA01020649AF
:101370000A6062B6054903EBC303DB00C81800220C
:10138000CA504260704700BF60E5FF1F00E2FF1FC8
:1013900008B50F4BC31A0F4AA2FB03131B090B2BF3
:1013A00014D80D4A12783AB10C4A127812F0FF0F95
:1013B00002D0FFF77FFB08BD72B6094A4FF000412B
:1013C00021FA03F311681943116062B608BD00BF2A
:1013D00000E2FF1F398EE3381AF0FF1F24F0FF1FD1
:1013E00060E5FF1F10B5134B1B6853B9124B1B78F8
:1013F00013F0FF0F18D00320FFF728FB0D4B1860E8
:10140000A8B10C4B186843885A1C03441C7A038803
:101410009A4206D3FFF7BCFF0022064B1A60204613
:1014200010BD4280204610BD4FF0FF3010BD4FF080
:10143000FF3010BD30F0FF1F24F0FF1F08B50D4B2B
:101440001B6883B90C4B1B7813F0FF0F08D00320E7
:10145000FFF7FCFA074B186028B94FF0FF3008BDC2
:101460004FF0FF3008BD034B1B685A881344187AAD
:1014700008BD00BF30F0FF1F24F0FF1F044B988809
:10148000044B1B681BB11A885B88D31A1844704739
:1014900040F2FF1F30F0FF1F10B50B4B1B7813F00D
:1014A000FF0F0FD0094B186820B1FFF771FF002222
:1014B000064B1A6003242046FFF7C8FA10B1FFF765
:1014C00067FFF8E710BD00BF24F0FF1F30F0FF1FDB
:1014D0002DE9F84F04460122384B1A708B4600293B
:1014E00065D00E46DFF8E080DFF8E0909A46344F92
:1014F000D8F8003083BB99F8003013F0FF0F06D105
:1015000000222E4B1A704FF0FF30BDE8F88F47F2E3
:1015100009550420FFF7B8FA07280AD801238AF8EA
:101520000030FFF715FFC8F80000A8B900238AF8BB
:101530000030013D01D03B7833B10122204B1A70BD
:101540004FF0FF30BDE8F88F00F0F2F899F8003066
:1015500013F0FF0FDDD1D3E700233B70D8F8001064
:101560004A88C2F14005AE4238BF354602F1080351
:101570000B442A444A80761B3DB1254414F8012BC4
:1015800003F8012BAC42F9D100E025464B883F2BF4
:1015900007D940230B800420FFF7D0FA0023C8F8B6
:1015A00000300522074B1A700EB12C46A0E700222E
:1015B000024B1A705846BDE8F88F00BF27F0FF1F96
:1015C0002CF0FF1F26F0FF1F28F0FF1F24F0FF1F45
:1015D00000B583B002AB03F8010D18460121FFF7F7
:1015E00077FF03B05DF804FB10B5144B1B7813F0C4
:1015F000FF0F21D00122124B1A70124B196851B102
:101600000024114B1C704B880B800420FFF796FAC6
:101610000C4B1C600DE0FFF79BFE014630B1002231
:10162000094B1A700420FFF789FA02E00122064BE9
:101630001A700022024B1A7010BD00BF24F0FF1F69
:1016400027F0FF1F28F0FF1F26F0FF1F08B50E4BE5
:101650001B7813F0FF0F16D10C4B196841B14B8862
:101660000B800420FFF76AFA0022084B1A6008BDBD
:10167000FFF76EFE014618B10420FFF75FFA08BDC0
:101680000122034B1A7008BD27F0FF1F28F0FF1F2F
:1016900026F0FF1F10B5144603685B689847204684
:1016A00010BD00BF0EB400B582B003AA52F8041BEF
:1016B000019204F02BFA02B05DF804EB03B070471E
:1016C00008B5FEF7CFFEFEF771FF00F031F8FAE73C
:1016D00008B5FFF7D3FE08BD08B5FFF783FE08BDC8
:1016E00008B5FFF7ABFE08BD08B5FFF77DFF08BDE5
:1016F00008B5FFF7D1FE08BD08B50846FFF768FF3B
:1017000008BD00BF08B508461146FFF7E1FE08BD59
:10171000704700BF044B00221A714FF47A71996030
:101720001A73024A1A60704738F0FF1F907F00005A
:1017300008B50F4B1B78CBB901220D4B1A70FFF780
:101740009DFE08B1FFF7E4FF00F002FC08B101F0D4
:10175000A5FB00F055FF08B101F042FC01F0DEF9F5
:1017600008B101F0DFFC0022014B1A7008BD00BF78
:1017700048F0FF1F844641EA000313F003036DD1D4
:10178000403A41D351F8043B40F8043B51F8043B44
:1017900040F8043B51F8043B40F8043B51F8043B4B
:1017A00040F8043B51F8043B40F8043B51F8043B3B
:1017B00040F8043B51F8043B40F8043B51F8043B2B
:1017C00040F8043B51F8043B40F8043B51F8043B1B
:1017D00040F8043B51F8043B40F8043B51F8043B0B
:1017E00040F8043B51F8043B40F8043B51F8043BFB
:1017F00040F8043B51F8043B40F8043B51F8043BEB
:1018000040F8043B403ABDD2303211D351F8043B8A
:1018100040F8043B51F8043B40F8043B51F8043BCA
:1018200040F8043B51F8043B40F8043B103AEDD239
:101830000C3205D351F8043B40F8043B043AF9D28A
:10184000043208D0D2071CBF11F8013B00F8013B5D
:1018500001D30B8803806046704700BF082A13D36A
:101860008B078DD010F003038AD0C3F10403D21A82
:10187000DB071CBF11F8013B00F8013B80D331F8B6
:10188000023B20F8023B7BE7043AD9D3013A11F836
:10189000013B00F8013BF9D20B7803704B784370A1
:1018A0008B788370604670476022264B1A70E12265
:1018B00001331A70244B1B78082B09D1012203F144
:1018C000804303F56C331A60132204331A6011E06D
:1018D0000A2B06D139221D4B1A60132204331A60D9
:1018E00008E00C2B0CBF35223D22184B1A60122247
:1018F00004331A60164B1B781BB10122154B1A607A
:1019000002E00022134B1A60134B1B78012B03D803
:101910008022124B1A6011E0042B03D884220F4B53
:101920001A600BE0082B03D885220C4B1A6005E0E7
:10193000102B94BF86228722084B1A600122084B85
:101940001A7070470040074064E5FF1F08B003406D
:101950004AF0FF1F20B0034065E5FF1F24B003409D
:1019600049F0FF1F024B1A6801321A60704700BF2E
:1019700040EFFF1F08B50D4C236813F4802F01D0F2
:10198000FFF724F9236813F4806F01D000F06AFB9D
:10199000236813F4006F01D000F0A8FE236813F44D
:1019A000805FE9D001F030F9E6E700BF3480044001
:1019B00008B5FFF7DFFF00BF1022014B1A80704708
:1019C00000200540704700BF024A136818441060A9
:1019D0001846704768E5FF1FEFF31383ABB9EFF3C9
:1019E0001083ABB9EFF3058323B10F2B05D9094A57
:1019F000985C03E04FF4807000E00020EFF3118367
:101A00003BB1834238BF184670474FF0FF307047F4
:101A100000207047F0E300E030B40023B0FBF2F4A4
:101A200002FB14041D46092C94BF30343734E4B251
:101A3000CC54B0FBF2F008B10133EFE70D440022C3
:101A40006A70934207DD885CCC5C8C54C8540132C8
:101A5000013B9A42F7DB084630BC7047254B1A68B9
:101A600042F480621A600023234A1370234A1370E1
:101A7000234A1370234A1370234A1370234B1B7895
:101A800013B1152B05D008E040F21332204B1A6039
:101A900003E040F213321F4B1A601F4B1B78012BDF
:101AA00002D0052B05D008E04FF451721B4B1A6091
:101AB00003E04FF451721A4B1A60C0F34432194BD1
:101AC0001A70C0F347125A7000F01F009872042277
:101AD0009A700221D9745A7588221A743C22DA70DD
:101AE0004022114B1A704FF48032A3F544731A60F0
:101AF000704700BF34800440D8F0FF1F51F0FF1F33
:101B0000E0F0FF1FD9F0FF1F50F0FF1F94F0FF1F00
:101B100040A0044018C004406CE5FF1F44A00440EE
:101B20001CC0044000A0064010E400E0164B9B7867
:101B300003F0EC0300F00302134310F0040F18BF8E
:101B400043F01003104A937000F00F03042B04D1EC
:101B50001346927942F040029A710B4B5A7902F087
:101B6000EF0210F0100F18BF42F01002064B5A712E
:101B70009B7903F0EF0310F0200F18BF43F0100320
:101B8000014A9371704700BF00A0064010B5144B86
:101B90001B6813F4806F21D0124B1B7813F0FF0FDA
:101BA00006D0104CFFF7C4FD237813F0FF0FF9D1D6
:101BB0004FF480320C4B1A6000230C4AD37040F271
:101BC00003120B490A6004310A600A4A13700A4A78
:101BD00013700A4B1B680BB101221A7010BD00BFB5
:101BE0003480044050F0FF1F80E100E000A0064078
:101BF00040A00440D8F0FF1F51F0FF1F4CF0FF1F22
:101C000010B50446094A137813F0FF0FFBD12046A4
:101C10000121FEF72FFE20460021FEF707FE044BB0
:101C200053F83420034B1A6010BD00BF50F0FF1F63
:101C3000747E0000DCF0FF1F10B40C4609B140F0C8
:101C40008000184B1B78984228D0174A126812F46B
:101C5000806F21D003F07F03012B02D0052B04D02D
:101C600006E00022114B1A6002E00022104B1A60BD
:101C7000002C0CBF4422602200F07F03012B02D015
:101C8000052B05D008E042F44072084B1A6003E0CF
:101C900042F44072064B1A60024B18705DF8044B18
:101CA000704700BF6CE5FF1F3480044044A004402F
:101CB0001CC00440114B1B7898421ED0104A126879
:101CC00012F4806F17D013B1152B04D006E0002258
:101CD0000C4B1A6002E000220B4B1A6010B1152861
:101CE00005D008E040F21332064B1A6003E040F2E0
:101CF0001332054B1A60014B1870704794F0FF1FA8
:101D00003480044040A0044018C0044010B50D4B7E
:101D10001B6813F4806F12D021280CD80A4C0B4B8F
:101D200053F8303023600121FEF7A4FD2368002220
:101D30001A70012010BD0020034B186010BD002058
:101D400010BD00BF348004404CF0FF1F747E0000C3
:101D5000114B1B6813F4806F1BD0122804D140F282
:101D600002320E4B1A600DE0142804D140F2023208
:101D70000B4B1A6006E00B4B5A7B02F0FE025A73C3
:101D800000207047074B5A7B42F001025A73012032
:101D900070470020704700BF348004400CA004400E
:101DA00014C0044000A006402DE9F04107461F4B37
:101DB0001B6813F4806F37D01D4B1B680BB10122D9
:101DC0001A701C4B1C780134402C28BF00241A4D7B
:101DD0001A4EDFF86C8017E0FFF7FEFD40280FDC9D
:101DE000337913F0800F0FD02B780133402B28BFAD
:101DF000002318F80320D2B2F271DBB22B7003E09B
:101E0000FF2801DDFFF794FC2B78DBB29C42E3D086
:101E1000FFB20B4B1F5501220A4B1A70E4B2054B5F
:101E20001C70BC22054BDA70BDE8F08134800440A0
:101E3000DCF0FF1FE0F0FF1FD9F0FF1F00A00640FD
:101E400054F0FF1F50F0FF1F2DE9F84F0746284BB5
:101E50001B6813F4806F49D0264B1B680BB101221D
:101E60001A7007EB010B5F453DD2DFF89890224EC8
:101E7000DFF88C80DFF890A099F800400134402C06
:101E800028BF00243578EDB2A54220D1BC2388F8C4
:101E90000330FFF7A1FD402811DC98F8043013F05F
:101EA000800F10D033780133402B28BF00231AF85D
:101EB0000320D2B288F80720DBB2337003E0FF289A
:101EC00001DDFFF735FC3378DBB29D42E1D017F836
:101ED000013B0AF804300122084B1A70E4B289F879
:101EE00000405F45C8D1BC22054BDA70BDE8F88FD1
:101EF00034800440DCF0FF1FD9F0FF1F50F0FF1FBB
:101F000000A00640E0F0FF1F54F0FF1F10B5064B85
:101F10001B7813F0FF0F06D0034CFFF709FC237862
:101F200013F0FF0FF9D110BD50F0FF1F064B1B78C7
:101F3000DBB2064A1278D2B293422CBF3F3202F192
:101F4000FF32D01A704700BFE0F0FF1FD9F0FF1F2B
:101F5000054B1878C0B2054B1B78DBB2984238BFEE
:101F60004030C01A704700BFD8F0FF1F51F0FF1F6C
:101F700010B4184B1A78D2B2174B1B78DBB29A42C6
:101F800018D001333F2B18D81449C85CC0B2DCB25A
:101F900011490C7012490968C9B19A4203D300E093
:101FA0000023D31A01E04032D31A1A2B0FDC00238E
:101FB0000B700CE04FF0FF3009E0084B1878C0B20E
:101FC0000021054B1970064B19680029E8D15DF80E
:101FD000044B7047D8F0FF1F51F0FF1F98F0FF1F10
:101FE0004CF0FF1F094B1A78D2B2094B1B78DBB2B9
:101FF0009A4207D00133402B28BF0023054AD05C0A
:10200000C0B270474FF0FF30704700BFD8F0FF1FDD
:1020100051F0FF1F98F0FF1F0D4B1B6813F4806FEA
:1020200014D00C4BDA7802F0CB02DA7040225A74EA
:10203000DA7842F03402DA70074B1A78D2B2074BE2
:102040001A70074B1B680BB100221A70704700BF53
:102050003480044000A0064051F0FF1FD8F0FF1F5D
:102060004CF0FF1F70B43D4B1B7913F0300F33D091
:1020700072B63A4B9B7D03F0FF022BB9374BDA79EE
:1020800040225A7462B627E062B6354B1978C9B25D
:10209000344B1C78E4B2314D334EEB79D8B24B1C43
:1020A000402B28BF0023A3421CBFF0541946531EE7
:1020B00013F0FF02F1D1CAB2294B1A702B4B1B68E7
:1020C00053B1A1422EBFC4EB0101C4F14004091970
:1020D0002729C4BF01221A70204BDA78D2B212F03D
:1020E000800F27D01B7913F0800F23D0204B1C7852
:1020F000E4B2204B1B78DBB29C4210D017491E4D36
:1021000001E0A3420BD00133402B28BF0023087904
:10211000E85CC0B2C871087DC0B20728F1D9DBB253
:1021200014490B700D4B1B7913F0800F02D07C21EA
:102130000A4BD97012F0400F0ED0084B1B7913F0E8
:10214000400F09D000220D4B1A700D4B1B6803B1D4
:102150001A703C22014BDA7070BC704700A0064038
:10216000D8F0FF1F51F0FF1F98F0FF1F4CF0FF1F2A
:10217000E0F0FF1FD9F0FF1F54F0FF1F50F0FF1FCA
:10218000DCF0FF1F234B1A6842F400621A60002340
:10219000214A1370214A1370214A1370214A137087
:1021A000214A1370214B1B78092B02D01A2B05D022
:1021B00008E040F213321E4B1A6003E040F2133283
:1021C0001C4B1A601C4B1B780A2B02D01F2B05D00E
:1021D00008E04FF45172194B1A6003E04FF451724A
:1021E000174B1A60C0F34432164B1A70C0F34712F3
:1021F0005A7000F01F00987200229A701A742C22F4
:10220000DA704022104B1A704FF48022A3F212337E
:102210001A6070473480044054F1FF1FE9F0FF1F3B
:102220005CF1FF1F55F1FF1FE8F0FF1F6DE5FF1F79
:102230000CB0044004D004406EE5FF1F10B0044011
:1022400000D0044000B0064012E400E0164B9B783A
:1022500003F0EC0300F00302134310F0040F18BF67
:1022600043F01003104A937000F00F03042B04D1C5
:102270001346927942F040029A710B4B5A7902F060
:10228000EF0210F0100F18BF42F01002064B5A7107
:102290009B7903F0EF0310F0200F18BF43F01003F9
:1022A000014A9371704700BF00B0064010B5224B41
:1022B0001B6813F4006F3ED0204B1B7813F0FF0F08
:1022C00006D01E4CFFF734FA237813F0FF0FF9D134
:1022D0004FF480221A4B1A6000221A4BDA701A4B04
:1022E0001B78092B02D01A2B05D008E040F203120C
:1022F000164B1A6003E040F20312154B1A60154B9F
:102300001B7803F07F030A2B02D01F2B05D008E0B7
:1023100040F20312104B1A6003E040F203120F4B1D
:102320001A6000230E4A13700E4A13700E4B1B687E
:102330000BB101221A7010BD34800440E8F0FF1F79
:1023400080E100E000B006406DE5FF1F0CB00440E6
:1023500004D004406EE5FF1F10B0044000D00440DC
:1023600054F1FF1FE9F0FF1FE4F0FF1F10B5044612
:10237000094A137813F0FF0FFBD120460121FEF725
:1023800079FA20460021FEF751FA044B53F8342025
:10239000034B1A6010BD00BFE8F0FF1F747E000001
:1023A00058F1FF1F10B40C4609B140F08000184BE3
:1023B0001B78984228D0174A126812F4006F21D077
:1023C00003F07F030A2B02D01F2B04D006E000226B
:1023D000114B1A6002E00022104B1A60002C0CBF57
:1023E0004422602200F07F030A2B02D01F2B05D06D
:1023F00008E042F44072084B1A6003E042F4407275
:10240000064B1A60024B18705DF8044B704700BF12
:102410006EE5FF1F3480044010B0044000D004403B
:10242000124B1B78984220D0114A126812F4006FA8
:1024300019D0092B02D01A2B04D006E000220D4B34
:102440001A6002E000220C4B1A60092802D01A28F8
:1024500005D008E040F21332064B1A6003E040F268
:102460001332054B1A60014B187070476DE5FF1F62
:10247000348004400CB0044004D0044010B50D4B2F
:102480001B6813F4006F12D021280CD80A4C0B4B98
:1024900053F8303023600121FEF7ECF92368002265
:1024A0001A70012010BD0020034B186010BD0020E1
:1024B00010BD00BF34800440E4F0FF1F747E0000B4
:1024C0000D4B1B6813F4006F13D017280AD140F28C
:1024D00002320A4B1A600A4B5A7B42F001025A73CD
:1024E00001207047064B5A7B02F0FE025A7300200F
:1024F00070470020704700BF3480044008B004409B
:1025000000B006402DE9F04107461F4B1B6813F44D
:10251000006F37D01D4B1B680BB101221A701C4B8A
:102520001C780134282C28BF00241A4D1A4EDFF8DD
:102530006C8017E0FFF750FA40280FDC337913F076
:10254000800F0FD02B780133282B28BF002318F8D9
:102550000320D2B2F271DBB22B7003E0FF2801DD61
:10256000FFF7E6F82B78DBB29C42E3D0FFB20B4BCF
:102570001F5501220A4B1A70E4B2054B1C70AC22A5
:10258000054BDA70BDE8F0813480044058F1FF1F3C
:102590005CF1FF1F55F1FF1F00B00640ECF0FF1F7C
:1025A000E8F0FF1F38B505460C4629B115F8010BB8
:1025B000FFF7A8FF013CF9D138BD00BF10B5064BAD
:1025C0001B7813F0FF0F06D0034CFFF7B1F8237808
:1025D00013F0FF0FF9D110BDE8F0FF1F064B1B7879
:1025E000DBB2064A1278D2B293422CBF273202F1F4
:1025F000FF32D01A704700BF5CF1FF1F55F1FF1F7B
:10260000054B1878C0B2054B1B78DBB2984238BF37
:102610004030C01A704700BF54F1FF1FE9F0FF1FA0
:1026200010B4184B1A78D2B2174B1B78DBB29A420F
:1026300018D001333F2B18D81449C85CC0B2DCB2A3
:1026400011490C7012490968C9B19A4203D300E0DC
:102650000023D31A01E04032D31A1A2B0FDC0023D7
:102660000B700CE04FF0FF3009E0084B1878C0B257
:102670000021054B1970064B19680029E8D15DF857
:10268000044B704754F1FF1FE9F0FF1F14F1FF1FC7
:10269000E4F0FF1F094B1A78D2B2094B1B78DBB26A
:1026A0009A4207D00133402B28BF0023054AD05C53
:1026B000C0B270474FF0FF30704700BF54F1FF1FAA
:1026C000E9F0FF1F14F1FF1F054B1A78D2B2054B3A
:1026D0001A70054B1B680BB100221A70704700BFBF
:1026E000E9F0FF1F54F1FF1FE4F0FF1F264B1B7999
:1026F00013F0200F12D0244BDB79D9B2234B1B7877
:102700000133402B28BF0023214A1278D2B29A42CB
:1027100004D0204AD154DBB21C4A13701A4BDB7828
:10272000DBB213F0800F1CD0174A127912F0800F21
:1027300017D0194A1178C9B2184A1278D2B2914208
:1027400003D16C21104AD1700BE00132282A28BF36
:1027500000221349885CC0B20B49C871D2B20F493C
:102760000A7013F0400F0ED0074B1B7913F0400F87
:1027700009D000220B4B1A700B4B1B6803B11A7067
:102780002C22014BDA70704700B0064054F1FF1F55
:10279000E9F0FF1F14F1FF1F5CF1FF1F55F1FF1F50
:1027A000ECF0FF1FE8F0FF1F58F1FF1F174B1A68EE
:1027B00042F480521A600023154A1370154A1370B0
:1027C000154A1370154A1370154A137040F21331ED
:1027D000144A11604FF4517104321160C0F3443156
:1027E000114A1170C0F34711517000F01F00907230
:1027F000937013742C23D37040220C4B1A704FF437
:102800008012A3F545731A60704700BF34800440FE
:10281000D0F1FF1F65F1FF1FD8F1FF1FD1F1FF1F9E
:1028200064F1FF1F08C0044000C0064014E400E04B
:10283000164B9B7803F0EC0300F00302134310F0F7
:10284000040F18BF43F01003104A937000F00F03F9
:10285000042B04D11346927942F040029A710B4B3B
:102860005A7902F0EF0210F0100F18BF42F0100278
:10287000064B5A719B7903F0EF0310F0200F18BF3D
:1028800043F01003014A9371704700BF00C0064037
:1028900010B5144B1B6813F4805F21D0124B1B78CA
:1028A00013F0FF0F06D0104CFEF742FF237813F011
:1028B000FF0FF9D14FF480120C4B1A6000230C4A21
:1028C000D37040F203120B490A6004310A600A4ACD
:1028D00013700A4A13700A4B1B680BB101221A705D
:1028E00010BD00BF3480044064F1FF1F80E100E0B0
:1028F00000C0064008C00440D0F1FF1F65F1FF1F73
:1029000060F1FF1F10B50446094A137813F0FF0F5A
:10291000FBD120460121FDF7ADFF20460021FDF748
:1029200085FF044B53F83420034B1A6010BD00BFE1
:1029300064F1FF1F747E0000D4F1FF1F10B40C4639
:1029400009B140F08000104B1B78984219D00F4A13
:10295000126812F4805F12D003F07F03082B02D1BB
:1029600000220B4B1A60002C0CBF4422602200F0A6
:102970007F03082B03D142F44072054B1A60024BCF
:1029800018705DF8044B70476FE5FF1F34800440FA
:102990000CC00440704700BF10B50D4B1B6813F40A
:1029A000805F12D021280CD80A4C0B4B53F83030E2
:1029B00023600121FDF75EFF236800221A700120C9
:1029C00010BD0020034B186010BD002010BD00BFDB
:1029D0003480044060F1FF1F747E00000D4B1B68C3
:1029E00013F4805F13D00E280AD140F202320A4B52
:1029F0001A600A4B5A7B42F001025A730120704759
:102A0000064B5A7B02F0FE025A73002070470020EA
:102A1000704700BF3480044004C0044000C006403A
:102A20002DE9F04107461F4B1B6813F4805F37D038
:102A30001D4B1B680BB101221A701C4B1C78013412
:102A4000282C28BF00241A4D1A4EDFF86C8017E09E
:102A5000FEF7C2FF40280FDC337913F0800F0FD050
:102A60002B780133282B28BF002318F80320D2B27B
:102A7000F271DBB22B7003E0FF2801DDFEF758FE98
:102A80002B78DBB29C42E3D0FFB20B4B1F550122E7
:102A90000A4B1A70E4B2054B1C70AC22054BDA707D
:102AA000BDE8F08134800440D4F1FF1FD8F1FF1F4E
:102AB000D1F1FF1F00C0064068F1FF1F64F1FF1F46
:102AC00038B505460C4629B115F8010BFFF7A8FFEC
:102AD000013CF9D138BD00BF10B5064B1B7813F08F
:102AE000FF0F06D0034CFEF723FE237813F0FF0FF1
:102AF000F9D110BD64F1FF1F064B1B78DBB2064A0B
:102B00001278D2B293422CBF273202F1FF32D01A90
:102B1000704700BFD8F1FF1FD1F1FF1F054B187898
:102B2000C0B2054B1B78DBB2984238BF4030C01AA8
:102B3000704700BFD0F1FF1F65F1FF1F10B4184BA5
:102B40001A78D2B2174B1B78DBB29A4218D00133F5
:102B50003F2B18D81449C85CC0B2DCB211490C70C4
:102B600012490968C9B19A4203D300E00023D31A7D
:102B700001E04032D31A1A2B0FDC00230B700CE05B
:102B80004FF0FF3009E0084B1878C0B20021054B28
:102B90001970064B19680029E8D15DF8044B70479D
:102BA000D0F1FF1F65F1FF1F90F1FF1F60F1FF1FC4
:102BB000094B1A78D2B2094B1B78DBB29A4207D084
:102BC0000133402B28BF0023054AD05CC0B27047B8
:102BD0004FF0FF30704700BFD0F1FF1F65F1FF1FBE
:102BE00090F1FF1F054B1A78D2B2054B1A70054BB6
:102BF0001B680BB100221A70704700BF65F1FF1F00
:102C0000D0F1FF1F60F1FF1F2F4B1B7913F0200F36
:102C100023D02D4BDB79D9B22C4B1B780133402BC1
:102C200028BF00232A4A1278D2B29A4204D0294AF5
:102C3000D154D9B2254A1170274A116869B1274A7F
:102C40001278D2B293422EBFC2EB0303C2F140020C
:102C50009B18272BC4BF01230B701B4BDB78DBB207
:102C600013F0800F1CD0184A127912F0800F17D081
:102C70001B4A1178C9B2194A1278D2B2914203D1D3
:102C80006C21114AD1700BE00132282A28BF0022A2
:102C90001449885CC0B20C49C871D2B20F490A709D
:102CA00013F0400F0ED0084B1B7913F0400F09D0E2
:102CB00000220D4B1A700D4B1B6803B11A702C22A9
:102CC000014BDA70704700BF00C00640D0F1FF1F13
:102CD00065F1FF1F90F1FF1F60F1FF1FD1F1FF1F92
:102CE000D8F1FF1F68F1FF1F64F1FF1FD4F1FF1F30
:102CF00000B585B072B61B4B70221A7041211A4A7A
:102D000011700F21013A117080221A701A4613783F
:102D100013F0800FFBD0154B186862B6144B984225
:102D20009CBF00EB8000400001A90A22FEF774FE60
:102D30009DF804307BB908E001A9595C31B191805C
:102D4000023201330A2BF7D100E0002301335B008C
:102D5000084A137003E0074A53800123ECE705B0EB
:102D60005DF804FB0000024007000240080002403A
:102D70007F969800FCE5FF1F08B503681B68C9B281
:102D8000984708BD08B503681B68C9B2984708BDD5
:102D900008B503681B68C9B2984708BD08B5036841
:102DA0001B68C9B2984708BD08B54B0803F1B76066
:102DB00000F55840B0FBF1F0FEF750FE08BD00BF33
:102DC00010B514464B0803F1B76000F55840B0FB4E
:102DD000F1F0FEF743FE2046FEF7A8FE10BD00BF4F
:102DE00008B5FEF7D3FE08BD08B50846FEF708FF94
:102DF00008BD00BF08B50846FEF75CFF08BD00BF70
:102E000008B508461146FEF717FF08BD08B5084685
:102E1000FEF77CFF003018BF012008BD08B508464A
:102E2000FEF796FF003018BF012008BD08B5FFF778
:102E30008FF808BD08B5FFF7D5F808BD08B5FFF74E
:102E400097F808BD08B5FFF761F808BD08B5FFF7AA
:102E5000E3F808BD08B5FFF769F808BD08B50846EE
:102E6000FEF7A2FF012008BD08B50846FEF79CFF4B
:102E7000012008BD10B5144608461146FEF7E4FFD0
:102E8000204610BD38B50D46084601F06DFB0446DE
:102E900028462146FEF7D8FF204638BD704700BFC0
:102EA000044B00221A714FF47A7199601A73024A26
:102EB0001A607047DCF1FF1F1080000008B503683E
:102EC0001B68C9B2984708BD08B503681B68C9B23A
:102ED000984708BD08B503681B68C9B2984708BD84
:102EE00008B503681B68C9B2984708BD08B54B0808
:102EF00003F1B76000F55840B0FBF1F0FFF742F97D
:102F000008BD00BF10B514464B0803F1B76000F5CB
:102F10005840B0FBF1F0FFF735F92046FFF796F97E
:102F200010BD00BF08B5FFF7C1F908BD08B50846D8
:102F3000FFF71CFA08BD00BF08B50846FFF770FA96
:102F400008BD00BF08B508461146FFF72BFA08BDBB
:102F500008B50846FFF792FA003018BF012008BDF7
:102F600008B50846FFF7ACFA003018BF012008BDCD
:102F700008B5FFF745FB08BD08B5FFF78BFB08BD9B
:102F800008B5FFF74DFB08BD08B5FFF717FB08BDF7
:102F900008B5FFF799FB08BD08B5FFF71FFB08BD93
:102FA00008B50846FFF7AEFA012008BD08B5084687
:102FB000FFF7A8FA012008BD10B5144608461146CF
:102FC000FFF7F0FA204610BD38B50D46084601F06F
:102FD000CBFA044628462146FFF7E4FA204638BDDE
:102FE000704700BF044B00221A714FF47A71996048
:102FF0001A73024A1A607047ECF1FF1F70800000DC
:1030000008B503681B68C9B2984708BD08B50368CE
:103010001B68C9B2984708BD08B503681B68C9B2E8
:10302000984708BD08B503681B68C9B2984708BD32
:1030300008B54B0803F1B76000F55840B0FBF1F05C
:10304000FFF7B4FB08BD00BF10B514464B0803F1F1
:10305000B76000F55840B0FBF1F0FFF7A7FB204642
:10306000FFF7E6FB10BD00BF08B5FFF711FC08BD78
:1030700008B50846FFF746FC08BD00BF08B508467E
:10308000FFF788FC08BD00BF08B508461146FFF7EA
:1030900055FC08BD08B50846FFF77EFC003018BF98
:1030A000012008BD08B50846FFF798FC003018BF9E
:1030B000012008BD08B5FFF731FD08BD08B5FFF7D1
:1030C00077FD08BD08B5FFF739FD08BD08B5FFF766
:1030D00003FD08BD08B5FFF785FD08BD08B5FFF77E
:1030E0000BFD08BD08B50846FFF79AFC012008BD96
:1030F00008B50846FFF794FC012008BD10B514463A
:1031000008461146FFF7DCFC204610BD38B50D46D9
:10311000084601F029FA044628462146FFF7D0FC6C
:10312000204638BD704700BF044B00221A714FF48F
:103130007A7199601A73024A1A607047FCF1FF1F96
:10314000D080000031F0004310B408D00F4AA3F53E
:10315000801494420AD804205DF8044B704700287C
:103160000CBF022003205DF8044B7047B3F5801FAD
:1031700001D20320F7E7064A934201D00020F2E78C
:10318000D0F1010038BF0020EDE700BFFFFFDF7F77
:103190000000F07F81F0004102E000BF83F00043B7
:1031A00030B54FEA41044FEA430594EA050F08BFE2
:1031B00090EA020F1FBF54EA000C55EA020C7FEAA6
:1031C000645C7FEA655C00F0E2804FEA5454D4EB23
:1031D0005555B8BF6D420CDD2C4480EA020281EAED
:1031E000030382EA000083EA010180EA020281EA25
:1031F0000303362D88BF30BD11F0004F4FEA013177
:103200004FF4801C4CEA113102D0404261EB410185
:1032100013F0004F4FEA03334CEA133302D052420B
:1032200063EB430394EA050F00F0A780A4F10104C7
:10323000D5F1200E0DDB02FA0EFC22FA05F2801801
:1032400041F1000103FA0EF2801843FA05F35941E7
:103250000EE0A5F120050EF1200E012A03FA0EFC66
:1032600028BF4CF0020C43FA05F3C01851EBE37190
:1032700001F0004507D54FF0000EDCF1000C7EEBAD
:1032800000006EEB0101B1F5801F1BD3B1F5001FEB
:103290000CD349085FEA30004FEA3C0C04F101040A
:1032A0004FEA445212F5800F80F09A80BCF1004F33
:1032B00008BF5FEA500C50F1000041EB045141EAB5
:1032C000050130BD5FEA4C0C404141EB010111F4B6
:1032D000801FA4F10104E9D191F0000F04BF014661
:1032E0000020B1FA81F308BF2033A3F10B03B3F13F
:1032F00020020CDA0C3208DD02F1140CC2F10C02CF
:1033000001FA0CF021FA02F10CE002F11402D8BF2C
:10331000C2F1200C01FA02F120FA0CFCDCBF41EAF8
:103320000C019040E41AA2BF01EB0451294330BDC7
:103330006FEA04041F3C1CDA0C340EDC04F11404A4
:10334000C4F1200220FA04F001FA02F340EA03007B
:1033500021FA04F345EA030130BDC4F10C04C4F1C1
:10336000200220FA02F001FA04F340EA03002946A1
:1033700030BD21FA04F0294630BD94F0000F83F4EB
:10338000801306BF81F480110134013D4EE77FEACE
:10339000645C18BF7FEA655C29D094EA050F08BF1A
:1033A00090EA020F05D054EA000C04BF19461046FB
:1033B00030BD91EA030F1EBF0021002030BD5FEA3F
:1033C000545C05D14000494128BF41F0004130BD67
:1033D00014F580043CBF01F5801130BD01F00045BB
:1033E00045F0FE4141F470014FF0000030BD7FEA2E
:1033F000645C1ABF194610467FEA655C1CBF0B4629
:10340000024650EA013406BF52EA033591EA030F3F
:1034100041F4002130BD00BF90F0000F04BF002137
:10342000704730B54FF4806404F132044FF000056A
:103430004FF0000150E700BF90F0000F04BF0021E3
:10344000704730B54FF4806404F1320410F0004549
:1034500048BF40424FF000013EE700BF42004FEA44
:10346000E2014FEA31014FEA02701FBF12F07F43C1
:1034700093F07F4F81F06051704792F0000F14BFBE
:1034800093F07F4F704730B54FF4607401F0004502
:1034900021F0004120E700BF50EA010208BF704759
:1034A00030B54FF000050AE050EA010208BF70474E
:1034B00030B511F0004502D5404261EB41014FF4B7
:1034C000806404F132045FEA915C3FF4DCAE4FF0BB
:1034D00003025FEADC0C18BF03325FEADC0C18BFA2
:1034E000033202EBDC02C2F1200300FA03FC20FAF3
:1034F00002F001FA03FE40EA0E0021FA02F1144440
:10350000C1E600BF70B54FF0FF0C4CF4E06C1CEA54
:1035100011541DBF1CEA135594EA0C0F95EA0C0FC9
:1035200000F0DEF82C4481EA030621EA4C5123EA3C
:103530004C5350EA013518BF52EA033541F480116B
:1035400043F4801338D0A0FB02CE4FF00005E1FB1E
:1035500002E506F00042E0FB03E54FF00006E1FB68
:1035600003569CF0000F18BF4EF0010EA4F1FF04AB
:10357000B6F5007F64F5407404D25FEA4E0E6D41EB
:1035800046EB060642EAC62141EA55514FEAC520FC
:1035900040EA5E504FEACE2EB4F1FD0C88BFBCF578
:1035A000E06F1ED8BEF1004F08BF5FEA500E50F129
:1035B000000041EB045170BD06F0004646EA0101EF
:1035C00040EA020081EA0301B4EB5C04C2BFD4EB21
:1035D0000C0541EA045170BD41F480114FF0000E1A
:1035E000013C00F3AB8014F1360FDEBF002001F088
:1035F000004170BDC4F10004203C35DA0C341BDC02
:1036000004F11404C4F1200500FA05F320FA04F0D3
:1036100001FA05F240EA020001F0004221F0004107
:1036200010EBD37021FA04F642EB06015EEA430E7A
:1036300008BF20EAD37070BDC4F10C04C4F12005AA
:1036400000FA04F320FA05F001FA04F240EA02005D
:1036500001F0004110EBD37041F100015EEA430E2E
:1036600008BF20EAD37070BDC4F1200500FA05F24E
:103670004EEA020E20FA04F301FA05F243EA0203CD
:1036800021FA04F001F0004121FA04F220EA0200DC
:1036900000EBD3705EEA430E08BF20EAD37070BD22
:1036A00094F0000F0FD101F00046400041EB010102
:1036B00011F4801F08BF013CF7D041EA060195F0E4
:1036C000000F18BF704703F00046520043EB03039E
:1036D00013F4801F08BF013DF7D043EA060370478B
:1036E00094EA0C0F0CEA135518BF95EA0C0F0CD096
:1036F00050EA410618BF52EA4306D1D181EA0301DC
:1037000001F000414FF0000070BD50EA410606BFD5
:103710001046194652EA430619D094EA0C0F02D11A
:1037200050EA013613D195EA0C0F05D152EA03365F
:103730001CBF104619460AD181EA030101F000417D
:1037400041F0FE4141F470014FF0000070BD41F0C6
:10375000FE4141F4780170BD70B54FF0FF0C4CF4A0
:10376000E06C1CEA11541DBF1CEA135594EA0C0FBF
:1037700095EA0C0F00F0A7F8A4EB050481EA030E0C
:1037800052EA03354FEA013100F088804FEA0333F3
:103790004FF0805545EA131343EA12634FEA0222C1
:1037A00045EA111545EA10654FEA00260EF0004182
:1037B0009D4208BF964244F1FD0404F5407402D2D4
:1037C0005B084FEA3202B61A65EB03055B084FEA65
:1037D00032024FF480104FF4002CB6EB020E75EB62
:1037E000030E22BFB61A754640EA0C005B084FEA8A
:1037F0003202B6EB020E75EB030E22BFB61A754607
:1038000040EA5C005B084FEA3202B6EB020E75EB51
:10381000030E22BFB61A754640EA9C005B084FEAC9
:103820003202B6EB020E75EB030E22BFB61A7546D6
:1038300040EADC0055EA060E18D04FEA051545EAC5
:1038400016754FEA06164FEAC30343EA52734FEA6E
:10385000C2025FEA1C1CC0D111F4801F0BD141EAE7
:1038600000014FF000004FF0004CB6E711F4801F4C
:1038700004BF01430020B4F1FD0C88BFBCF5E06F2C
:103880003FF6AFAEB5EB030C04BFB6EB020C5FEA3C
:10389000500C50F1000041EB045170BD0EF0004E91
:1038A0004EEA113114EB5C04C2BFD4EB0C0541EAC3
:1038B000045170BD41F480114FF0000E013C90E6C0
:1038C00045EA060E8DE60CEA135594EA0C0F08BF84
:1038D00095EA0C0F3FF43BAF94EA0C0F0AD150EA83
:1038E00001347FF434AF95EA0C0F7FF425AF104616
:1038F00019462CE795EA0C0F06D152EA03353FF43E
:10390000FDAE1046194622E750EA410618BF52EABA
:1039100043067FF4C5AE50EA41047FF40DAF52EA8E
:1039200043057FF4EBAE12E74FF0FF3C06E000BF2B
:103930004FF0010C02E000BF4FF0010C4DF804CD38
:103940004FEA410C7FEA6C5C4FEA430C18BF7FEAF8
:103950006C5C1BD001B050EA410C0CBF52EA430C26
:1039600091EA030F02BF90EA020F0020704710F1A6
:10397000000F91EA030F58BF994208BF90422CBF35
:10398000D8176FEAE37040F0010070474FEA410C2E
:103990007FEA6C5C02D150EA013C07D14FEA430C4C
:1039A0007FEA6C5CD6D152EA033CD3D05DF8040BBD
:1039B000704700BF8446104662468C4619466346EF
:1039C00000E000BF01B5FFF7B7FF002848BF10F1C6
:1039D000000F01BD4DF808EDFFF7F4FF0CBF01200B
:1039E00000205DF808FB00BF4DF808EDFFF7EAFF87
:1039F00034BF012000205DF808FB00BF4DF808ED42
:103A0000FFF7E0FF94BF012000205DF808FB00BF36
:103A10004DF808EDFFF7CEFF94BF012000205DF8C0
:103A200008FB00BF4DF808EDFFF7C4FF34BF0120CD
:103A300000205DF808FB00BF70B50F4E0F4D761BE0
:103A4000B61007D0043D0024013455F8043F9847D0
:103A5000A642F9D10A4E0B4D761B04F027FCB61096
:103A600008D0043D0024013455F8043F9847A6428D
:103A7000F9D170BD70BD00BFB8820000B8820000EF
:103A8000D0820000B8820000024B0146186800F0A6
:103A900003B800BF40EAFF1F2DE9F04F01F10B050D
:103AA000162D83B0064627D935F0070527D4A9423D
:103AB00025D8304600F036FBB5F5FC7F26D2C14F45
:103AC0004FEAD50C07EBCC03DC689C4200F0D281B6
:103AD0006368E268A16823F00303234430465D680D
:103AE000CA6045F0010591605D6000F01DFB08347F
:103AF000204603B0BDE8F08F1025A942D9D9002493
:103B00000C232046336003B0BDE8F08F5FEA552CEC
:103B100000F08A80BCF1040F00F260814FEA951C2E
:103B20000CF1380C4FEA4C01A64F07EB8101CC6831
:103B3000A14205D10CE0002B7ADAE468A14207D05B
:103B4000626822F00302531B0F2BF4DD0CF1FF3CE3
:103B50000CF1010C9B4B3C6903F1080E744500F01D
:103B60007E81616821F003014A1B0F2A00F3648102
:103B7000002AC3F814E0C3F810E06ADAB1F5007F58
:103B800080F03A81C90803EBC1004FEAA1085A68E6
:103B90008168A1604FF0010909FA08F848EA0202B9
:103BA000E0605A608460CC604FEAAC03012098402A
:103BB00090425BD8024206D12CF0030C4000024236
:103BC0000CF1040CFAD007EBCC084446E146E3685C
:103BD0009C4207D145E1002A80F25681DB689C4275
:103BE00000F03F81596821F003014A1B0F2AF2DDE2
:103BF0001C46D3F80CC054F8088F591945F0010938
:103C000042F00105C3F804903046C8F80CC0CCF867
:103C1000088079613961C1F80CE0C1F808E04D60B5
:103C20008A5000F081FA63E77E214FF03F0C7BE77A
:103C30002244E3685068A16840F00105CB6030463B
:103C40009960556000F070FA0834204603B0BDE872
:103C5000F08F214430464B6843F001034B6000F085
:103C600063FA0834204603B0BDE8F08FBC6863688F
:103C700023F00309A94504D3C5EB09030F2B00F377
:103C80009180514B514A19681368013305EB010AC1
:103C900004EB090B00F061810AF5805A0AF10F0A62
:103CA0002AF47F6A2AF00F0A30465146019200F04A
:103CB00023FCB0F1FF3F8046019A00F0008183456C
:103CC00000F2FA80DFF810C1DCF80030C34553443D
:103CD000CCF8003000F04A8112683C4901321BBF29
:103CE000CBEB080B5B44C1F80080CCF8003018F037
:103CF000070300F01381C3F10802C3F58053904419
:103D00000833C244CAF30B0ACAEB030A51463046D1
:103D1000CDF804C000F0F0FB431CDDF804C000F057
:103D20003581C8EB0002524442F00102DCF8003059
:103D3000C7F808805344BC42C8F80420CCF80030CF
:103D4000DFF894A015D0B9F10F0F40F2EA80616856
:103D5000A9F10C0222F0070201F0010EA1180520C2
:103D600042EA0E0E0F2AC4F804E04860886000F2B0
:103D70001181174ABC6811688B4288BF1360154ACD
:103D800011688B4288BF1360626822F0030295427B
:103D9000C5EB020301D80F2B04DC304600F0C4F958
:103DA0000024A5E6621943F0010345F001056560B2
:103DB0003046BA60536000F0B7F90834204603B0CB
:103DC000BDE8F08F44EAFF1F14F2FF1F50EEFF1F03
:103DD00010F2FF1F0CF2FF1F18F2FF1FBCF1140FAF
:103DE00061D9BCF1540F00F28F804FEA153C0CF101
:103DF0006E0C4FEA4C0197E64B0A042B58D9142B52
:103E000000F2AE8003F15B02500007EB8000DFF8A8
:103E1000BC818368834200F08A805A6822F00302E2
:103E2000914202D29B689842F7D1D9687A68E160E2
:103E3000A3608C60DC60B7E6611942F0010745F0D1
:103E400001056560304659611961C1F80CE0C1F89F
:103E500008E04F608A50083400F066F948E65A6876
:103E6000A2E609F1010919F0030F04F108047FF437
:103E7000AEAE2DE004F108036469A34208BF0CF163
:103E8000020C3FF467AE23E619441C464868DB6821
:103E900054F8082F40F001054D603046D3609A6019
:103EA00000F042F924E60CF15B0C4FEA4C013BE6D2
:103EB0008A0938325000A8E7BC423FF403AFBC681F
:103EC000626822F0030262E7D8F8008098457BD14F
:103ED0001CF0030FA8F108030CF1FF3CF4D17B6840
:103EE00023EA00037B60400098423FF6BFAE002803
:103EF0003FF4BCAE0342CC467FF465AE40000342C3
:103F00000CF1040CFAD05EE6BCF5AA7F1AD84FEA91
:103F1000D53C0CF1770C4FEA4C0105E64FF4805389
:103F2000EFE60123C8F80430444600222FE7911041
:103F30000120D8F8042000FA01F10A43C8F804204F
:103F4000194674E740F254539C451BD84FEA954CF0
:103F50000CF17C0C4FEA4C01E6E50AF1100AA3E6ED
:103F6000542B1FD80A0B6E3250004EE7CBF30B01D7
:103F700000297FF4B1AE0AEB0901BA6841F00101F2
:103F80005160F6E6FC214FF07E0CCDE501224FF0AA
:103F9000000ACBE604F10801304602F003FEDAF82D
:103FA0000030E6E6B3F5AA7F03D8CA0B773250009B
:103FB0002BE740F25452934203D88A0C7C325000D3
:103FC00023E7FC207E2220E77B688CE744EAFF1F82
:103FD0008842F0B410D98C18A0420DD28518531E17
:103FE00042B121462A4611F8014D02F8014D013B2C
:103FF0005C1CF8D1F0BC70470F2A3FD940EA01039E
:104000009B073FD1A2F110073F0900EB07161036BE
:104010000C46034625681D6065685D60A5689D6067
:10402000E568DD601033B34204F11004F2D17B1C6B
:1040300002F00F0C1B01BCF1030F1944034423D9F8
:104040000E461D466446043C56F8047B45F8047B46
:10405000032CF8D8ACF1040424F00304043402F077
:10406000030223442144002AC4D01A4411F8014B0E
:1040700003F8014B9342F9D1F0BC70470346002A84
:10408000F3D1B7E70346F0E76246002AEDD1B1E786
:10409000F0B4840743D0541E002A3ED0CDB203466C
:1040A00003E0621E002C38D0144603F8015B9A0727
:1040B000F7D1032C2AD9CDB245EA05250F2C45EAC4
:1040C000054515D9A4F110073F0903F1100606EBC9
:1040D00007161A46156055609560D5601032B242D9
:1040E000F8D104F00F040137032C03EB07130DD9AB
:1040F0001E462246043A032A46F8045BFAD8221FD9
:1041000022F003020432134404F003042CB1C9B2B8
:104110001C4403F8011BA342FBD1F0BC70471446BA
:104120000346C6E7704700BF704700BF2DE9F04F58
:104130000C4683B090468146002900F0E280FFF7EC
:10414000F1FF08F10B0654F8043C162E23F003058A
:10415000A4F108074BD810210E46B0454CD88D422B
:1041600078DADFF890B3DBF808E07819864500F0DC
:10417000CE80426822F0010C8444DCF804C01CF0BC
:10418000010F7AD000221046DB0700F1928054F82C
:10419000083CC3EB070ADAF8043023F003032B448E
:1041A00088B3704500F0ED8002EB030E8E452ADBEC
:1041B000C36882685746D3609A6057F8081FDAF8D8
:1041C0000C30CB602A1F242A996000F22681132A22
:1041D00040F2B3802368CAF808306368CAF80C302C
:1041E0001B2A00F2308108340AF11003A6E026F001
:1041F0000706002E3146B0DA0C230020C9F8003043
:1042000003B0BDE8F08F8B4253DB5746DAF80C1051
:1042100057F8080F2A1F242AC160886000F209811C
:10422000132A40F204812168CAF808106168CAF8AC
:104230000C101B2A00F21C8108340AF110022168BC
:10424000116061685160A16891601D46DAF8043020
:104250003C465746AA1B0F2A03F0010319D82B43EB
:104260003D447B606B6843F001036B604846FFF799
:104270005BFF204603B0BDE8F08F22F0030202EBA3
:10428000050C8C4580DBC26881686546CA60916018
:10429000E0E7B91942F001001E430A447E6048601D
:1042A000536843F0010308315360484602F07AFC3A
:1042B000DCE741464846FFF7EFFB8046D0B154F8B3
:1042C000043C23F001023A44A0F10801914200F0BD
:1042D0009E802A1F242A50D8132A23D80346224618
:1042E000116819605168596092689A602146484681
:1042F00002F058FC4846FFF717FF404603B0BDE800
:10430000F08F114603B0BDE8F04FFFF7C5BBDEF8F4
:10431000042022F00302501906F1100C604519DA4E
:10432000704631E723680360636843601B2A63D8E3
:1043300000F1080304F10802D2E73B4622681A6044
:1043400062685A60A2689A603C467546DAF80430A2
:1043500057467FE73744831B43F00103CBF80870CF
:104360007B6054F8043C03F001031E43484644F8C4
:10437000046CFFF7D9FE20467CE72146FFF728FEB4
:10438000B4E702EB030C06F110029445FFF63BAFD5
:104390005746DAF80C3057F8081F2A1F242ACB603A
:1043A000996000F28780132A78D92368CAF8083008
:1043B0006368CAF80C301B2A00F2858008340AF1C1
:1043C000100322681A6062685A60A2689A600AEB59
:1043D0000603C6EB0C0242F00102CBF808305A602B
:1043E000DAF8043003F001031E434846CAF80460BB
:1043F000FFF79AFE38463DE7A3688360E368C36031
:10440000242A2CD000F1100304F1100268E750F8C0
:10441000042C22F0030215441CE721463846754659
:104420003C46FFF7D5FD5746DAF8043012E73A4626
:1044300005E7214638461D463C46FFF7C9FD57466D
:10444000DAF8043006E7A368CAF81030E368CAF85F
:104450001430242A18D010340AF118036EE72369A7
:1044600003616369436104F1180200F1180337E73F
:10447000A168CAF81010E168CAF81410242A0FD0F5
:1044800010340AF11802DAE62369CAF818306369B1
:10449000CAF81C3018340AF120034FE73B4690E776
:1044A0002269CAF818206269CAF81C2018340AF177
:1044B0002002C4E621463846CDF804C0FFF788FD47
:1044C000DDF804C083E7A368CAF81030E368CAF8CF
:1044D0001430242A03D010340AF1180371E7236939
:1044E000CAF818306369CAF81C3018340AF120037E
:1044F00067E700BF44EAFF1F38B5074C00230546B5
:1045000008462360FDF760FA431C00D038BD2368DD
:10451000002BFBD02B6038BD54F2FF1F0EB4F0B55A
:104520009CB021AB0F4953F8042B019305466FF063
:104530000044086802954FF402774FF6FF7602A90F
:104540000695ADF8147004940794ADF8166000F069
:104550003BF8029B00221A701CB0BDE8F04003B08B
:10456000704700BF40EAFF1F20F0030110F0030076
:10457000C0F1000051F8043B00F1040C4FEACC0CF0
:104580006FF000021CBF22FA0CF213434FF0010C33
:104590004CEA0C2C4CEA0C4CA3EB0C0222EA030272
:1045A00012EACC1204BF51F8043B0430F4D013F0EB
:1045B000FF0F1FBF013013F47F4F013013F47F0F43
:1045C00018BF0130704700BF2DE9F04FC9B09146C8
:1045D00010930C910D9002F0B3FB00681590FFF75B
:1045E000C3FF0C9C1890A3891A0603D52369002BDE
:1045F00001F08D8038ACA44608942B94002500244B
:10460000CDE91645002311932D932C931A931993FA
:104610000E93664699F80030002B00F0F880252BA9
:1046200000F0F58009F1010201E0252B04D01446C9
:1046300001322378002BF8D1C9EB04057DB12C9B06
:104640002D9AC6F8009001332A44072B75602D92ED
:104650002C9300F3C28008360E9828440E902378DD
:10466000002B00F0C280002394F801808DF88F3079
:104670001A460F93099304F101094FF0FF340A948D
:1046800009F10109A8F12003582B00F2C783DFE8E4
:1046900013F06A02C503C5037102C503C503C50350
:1046A000C503C503C50314036403C5039D00C0000F
:1046B000C50378027F027F027F027F027F027F02B2
:1046C0007F027F027F02C503C503C503C503C5037F
:1046D000C503C503C503C503C50390026F03C50326
:1046E0006F03C503C503C503C5036803C503C5033D
:1046F0007800C503C503C503C503C5035900C50339
:10470000C503AF02C503C503C503C503C503C50380
:10471000C503C503C503C503370348036F036F0310
:104720006F03FF024803C503C5030803C503C502A1
:104730007C002103A503C503D902C5035F00C5039F
:10474000C503DE00DDF824C04CF0100CCDF824C009
:10475000099CA20600F15683099CE30600F1E0855E
:10476000DDF824C01CF0400F00F0DA85DDF840C011
:10477000BCF800400CF1040C00250123CDF840C02A
:104780008CE0099D45F010050995DDF824C01CF06A
:10479000200340F02C83DDF824C01CF0100240F010
:1047A000B885DDF824C01CF0400300F0B285DDF8C8
:1047B00040C0BCF800400CF1040C13460025CDF8B5
:1047C00040C06BE00F9C109364420F94099D45F02C
:1047D0000405099599F8008052E70D980C992BAAC9
:1047E00002F004FE40B938AE36E72D9B23B10D9898
:1047F0000C992BAA02F0FAFD0C9C0E98A38913F0D9
:10480000400F18BF4FF0FF3049B0BDE8F08F4C4665
:1048100025E799F80080B8F12A0F09F1010001F0AD
:104820001881A8F13003092B98BF002101F277808D
:1048300010F8018B01EB810103EB4101A8F130037A
:10484000092BF5D941EAE1710A9181461AE7099DE0
:10485000A14C1A94AF068DF88F2040F1D181DDF87C
:1048600040C00CF1070323F0070303F10804109480
:10487000D3E90045DDF824C01CF0010F00F064848A
:1048800054EA050000F0608430234CF0020C8DF8EF
:1048900090308DF89180CDF824C002234FF0000AAB
:1048A0008DF88FA00A99002905DBDDF824C02CF0D3
:1048B000800CCDF824C054EA050040F0C7820A9964
:1048C000002940F0C382002B40F03A84DDF824C078
:1048D0001CF0010F00F0348448AF302307F8413D4D
:1048E000089DEC1BDDF828C000256445A8BFA44640
:1048F000CDF82CC01495BAF1000F02D00B9D0135F4
:104900000B95099B13F00203129302D00B9D023505
:104910000B95DDF824C01CF0840CCDF84CC040F0A1
:1049200092820F9DDDF82CC0CCEB050BBBF1000F84
:1049300040F38982BBF1100F2D992C9ADFF8A0A1CA
:104940002CDD1B97304657461025CA460C9EA146C3
:104950000D9C06E0ABF1100BBBF1100F00F108004D
:1049600017DD01321031072A2D912C920760456026
:10497000F0DD204631462BAA02F038FD00287FF4F6
:104980003BAFABF1100BBBF1100F2D992C9A38A84F
:10499000E7DC4C46D146BA461B9F064601320BEB7C
:1049A000010C072ACDF8B4C02C9286E8000C00F365
:1049B0001C849DF88FA00836BAF1000F0FD02C9BF5
:1049C00001330CF1010C0DF18F010122072BCDF801
:1049D000B4C02C9386E8060000F39A830836129B35
:1049E00073B12C9B01330CF1020C24A90222072B7A
:1049F000CDF8B4C02C9386E8060000F39583083602
:104A0000139D802D00F0CC820A9DC4EB050ABAF1FB
:104A1000000F3BDDBAF1100F2C9B304D2BDD0A94BB
:104A200032464FF0100B2E4661460D9C0C9D06E061
:104A3000AAF1100ABAF1100F02F1080217DD0133D2
:104A40001031072B2D912C9382E84008F0DD204691
:104A500029462BAA02F0CAFC00287FF4CDAEAAF1A9
:104A6000100ABAF1100F2D992C9B38AAE7DC0A9C8A
:104A700035468C4616460133D444072BCDF8B4C0D6
:104A80002C9386E8200400F337830836099DED0552
:104A900000F126822C9B37600133A444072BCDF80C
:104AA000B4C074602C9300F311830836099C63072B
:104AB00049D50F9D0B982C1A002C44DD102C2C9BF3
:104AC000DFF81CA02BDD574610256246DDF830804C
:104AD000DDF834A00BE000BF6481000030810000ED
:104AE00084810000103C102C06F1080615DD01330E
:104AF0001032072B2D922C9337607560F2DD5046F3
:104B000041462BAA02F072FC00287FF475AE103CDF
:104B1000102C2D9A2C9B38AEE9DC9446BA46013312
:104B2000A444072BCDF8B4C02C93C6F800A0746041
:104B300009DD0D980C992BAA02F058FC00287FF48F
:104B40005BAEDDF8B4C00E9C0B980F9DA842ACBFC5
:104B5000241864190E94BCF1000F40F0C3820023A6
:104B60002C9338AE56E599F80080002A7FF488AD82
:104B7000202285E5099D45F00105099599F80080F9
:104B80007EE5099D45F08005099599F8008077E557
:104B90000024A8F130030F94214619F8018B01EB92
:104BA000810103EB4101A8F13003092BF5D90F91E5
:104BB00068E5DDF824C08DF88F204CF0100CCDF89E
:104BC00024C0099CA30640F1B280109DE91D21F08C
:104BD0000701D1E900230831109114461D46002A2F
:104BE00073F10000C0F28B839DF88FA0012359E67A
:104BF000099DB74C8DF88F20AF061A943FF52FAE64
:104C0000099DED0640F15D84DDF840C0DCF8004010
:104C10000CF1040CCDF840C000252BE6DDF824C0D3
:104C20008DF88F201CF0200F00F03D84109C21682F
:104C30000E9CE5172B46109D224604351095C1E9C0
:104C40000023E7E4109C27684FF0000A8DF88FA03E
:104C5000251D002F00F0F5850A9C002C3846C0F277
:104C6000A7855146224602F06FF8002800F01F8603
:104C70000A9C1095C01BA042B8BF044624EAE47504
:104C8000CDF828A0CDF850A00B959DF88FA032E666
:104C9000DDF824C04CF0400CCDF824C099F8008019
:104CA000EEE499F80080B8F16C0F4B4600F08B846D
:104CB000099D45F010050995E2E4109C109D2468BB
:104CC0000F94002C05F10403FFF67CAD109399F8C6
:104CD0000080D5E4109ADDF824C07E4814681A904C
:104CE0003023151D4FF078084CF0020C8DF89030F1
:104CF0001095CDF824C000258DF891800223CDE5D4
:104D0000109A109D12688DF8B820002301240435F4
:104D10009A460B9410958DF88F300A9314932EAF0A
:104D2000EFE5099C8DF88F20A3063FF54EAFDDF827
:104D300024C01CF0100F40F0D282099C670640F19D
:104D4000CE82DDF840C0BCF900400CF1040CE51740
:104D500022462B46CDF840C041E799F800802B222F
:104D60008EE4099D45F00805099599F8008087E4CF
:104D7000109D099C8DF88F20EB1D250723F007035C
:104D800040F18A83D3E90045CDE9164503F1080CCB
:104D9000CDF840C0DDE91601FEF7D4F90128DDE9C0
:104DA000160140F05F8300220023FEF71DFE00285D
:104DB00040F06D859DF88FA003250B95099D464F0A
:104DC000464B25F080050024099500250A94B8F18A
:104DD000470FD8BF1F46032414958CE5DDF824C087
:104DE0004CF0200CCDF824C099F8008048E4109CC9
:104DF000E31D23F0070303F108051095D3E90045EF
:104E000000234BE5109DEB1D23F0070303F1080C75
:104E1000D3E90045CDF840C001233FE58DF88F2050
:104E2000B8F1000F3FF4E1AC00234FF0010C9A46BB
:104E3000CDF82CC08DF8B8808DF88F300A9314937C
:104E400064462EAF5DE5DDF8B4C0B5E5012B00F09A
:104E5000EC80022B0DF1DF0318D1DDF868C0194694
:104E600004F00F00220942EA05720F462B091CF8D4
:104E70000010397052EA030014461D4607F1FF3155
:104E8000EED1089DCDE91E23EC1B2BE5E00840EA9E
:104E9000457004F00702E908303250EA010C1F4661
:104EA0001A7004460D4603F1FF33EFD1099CCDE99A
:104EB0001C01E007394640F1C180302A00F0BE8075
:104EC000089D1F463023EC1B01F8013C0AE500BF9A
:104ED0005081000064810000448100004081000096
:104EE000B8F1650F40F3AD80DDE916010022002323
:104EF000CDF81CC0FEF76EFDDDF81CC0002800F0E8
:104F000026812C9BAA4A326001330CF1010C01224C
:104F1000072BCDF8B4C02C93726000F3F7820836EB
:104F2000259B119CA34203DB099DEC077FF5BEADD9
:104F30002C9B189D159C34600133AC44072BCDF895
:104F4000B4C075602C9300F348830836119D6C1E25
:104F5000002C7FF7ABAD102C2C9B964D40F3978126
:104F600010276246DDF83480DDF830A004E0083612
:104F7000103C102C40F38A8101331032072B2D9204
:104F80002C9386E8A000F2DD404651462BAA02F0A1
:104F90002DFA00287FF430AC2D9A2C9B38AEE7E731
:104FA0000F9D0B98C0EB050ABAF1000F7FF72CADEF
:104FB000BAF1100F2C9B7F4D2BDD129432464FF02F
:104FC000100B2E4661460D9C0C9D06E0AAF1100ABE
:104FD000BAF1100F02F1080217DD01331031072B6F
:104FE0002D912C9382E84008F0DD204629462BAA1B
:104FF00002F0FCF900287FF4FFABAAF1100ABAF125
:10500000100F2D992C9B38AAE7DC129C35468C4654
:1050100016460133D444072BCDF8B4C02C9386E850
:10502000200400F312820836EEE4002D08BF0A2C9B
:1050300080F0388148AF303407F8414D089DEC1BB3
:1050400050E4119C012C2C9C40F3D58101340CF1CF
:1050500001030122072C37602D932C94726000F31A
:10506000DB810836DDF86080159D35600134984499
:10507000189DCDF8B480072C2C94756000F3D8816E
:105080000836DDE9160100220023FEF7A3FC119D7E
:10509000002840F0B9806B1E013401379844072C7A
:1050A0002C94CDF8B4803760736000F3E28008364A
:1050B000DDF864C0199D0134C44427AB072CCDF83A
:1050C000B4C02C9486E828007FF7EFAC0D980C99BB
:1050D0002BAA02F08BF900287FF48EABDDF8B4C068
:1050E00038AEE3E40D980C992BAA02F07FF9002862
:1050F0003FF435ADFFF780BB0D980C992BAA02F059
:1051000075F900287FF478ABDDF8B4C038AEBDE4A3
:105110000D980C992BAA02F069F900287FF46CAB6A
:10512000DDF8B4C038AE5AE40D980C992BAA02F001
:105130005DF900287FF460ABDDF8B4C038AE5FE401
:105140000A9C38AFFFF7CEBB0223FFF7A7BB259B16
:10515000002B40F3E781119C149DDDF844A0AC4284
:10516000A8BF2C46002CBA440BDD2C9B37600133C2
:10517000A444072BCDF8B4C074602C9300F32883AB
:105180000836149D24EAE4742C1B002C40F3DB80C9
:10519000102C2C9B074D40F3AD810A974FF010085F
:1051A0002F4662462546DDF834B00C9C09E000BF6E
:1051B00080810000308100000836103D102D40F342
:1051C000958101331032072B2D922C9386E88001B4
:1051D000F2DD584621462BAA02F008F900287FF498
:1051E0000BAB2D9A2C9B38AEE7E70D980C992BAAA8
:1051F00002F0FCF800287FF4FFAA9DF88FA0DDF8EC
:10520000B4C038AEFFF7D8BB6F1E002F7FF750AF8A
:10521000102FB34D23DD43464FF0100ADDF83480E4
:10522000DDF830B004E0103F102F06F1080615DD60
:1052300001341033072C2D932C9486E82004F2DDE2
:10524000404659462BAA02F0D1F800287FF4D4AA90
:10525000103F102F2D9B2C9C38AEE9DC9846013472
:10526000B844072CCDF8B4802C9486E8A0007FF7D2
:105270001EAF0D980C992BAA02F0B8F800287FF405
:10528000BBAADDF8B4802C9C38AE11E794460133FC
:10529000A444072BCDF8B4C02C93356074607FF71D
:1052A00004AC13E70DF1DF0B204629460A22002348
:1052B00002F0F8F930328BF80020204629460A2205
:1052C000002302F0EFF904460D4654EA050C5F4650
:1052D0000BF1FF3BE8D1089DEC1BFFF703BB109DD2
:1052E000DDF840C02C68E51722462B460CF1040C73
:1052F000002A73F10000CDF840C0BFF675AC4FF046
:105300002D0A644265EB45058DF88FA00123FFF758
:10531000C9BA109D2C68043510950025FFF7BEBA58
:10532000109D2C680435109501230025FFF7B6BAAF
:105330000D980C992BAA02F059F800287FF45CAA6A
:10534000DDF8B4C038AE149D259C2F44119DAC42AD
:1053500042DB099DE9073FD41198C7EB0A05041BFE
:10536000AC42B8BF2546002D0BDD2C9B37600133C6
:10537000AC44072BCDF8B4C075602C9300F3528277
:10538000083625EAE575641B002C7FF78FAB102CDF
:105390002C9B534D7FF77BAF10276246DDF834809E
:1053A000DDF830A004E00836103C102C7FF76EAF1B
:1053B00001331032072B2D922C9386E8A000F2DDEA
:1053C000404651462BAA02F011F800287FF414AA97
:1053D0002D9A2C9B38AEE7E72C9B159D3560189DC8
:1053E00075600133AC44072BCDF8B4C02C9300F3A7
:1053F000FB810836B0E7099DEA073FF527AE013487
:105400000CF101080123072CCDF8B4802C943760EF
:1054100073607FF74CAE2CE70D980C992BAA01F026
:10542000E5FF00287FF4E8A92D9B2C9C38AE19E6F7
:105430000D980C992BAA01F0D9FF00287FF4DCA964
:10544000DDF8B4802C9C38AE1BE60D980C992BAA85
:1054500001F0CCFF00287FF4CFA9DDF8B4C038AE4E
:10546000FFF7D2BAFDF76EFE002840F0C280099C1B
:105470001C4F1D4B9DF88FA00A904FF0030C24F099
:1054800080040994CDF82CC01490B8F1470FD8BF10
:105490001F466446FFF72FBAD3E900450833CDE92C
:1054A0001645109376E4DDF824C01CF0100F00F0D0
:1054B0005581109C0E9D2368043410941D60FFF7E5
:1054C000A9B8099C640640F14281DDF840C0BCF8EF
:1054D00000400CF1040C0025CDF840C0FFF7CAB91C
:1054E000308100004C810000488100002C463D4680
:1054F0000A9F94460133A444072BCDF8B4C02C93E3
:10550000356074603FF714AF08361CE70D980C99AE
:105510002BAA01F06BFF00287FF46EA9DDF8B4C060
:1055200038AEFDE42C9AB749316001320CF1010C20
:105530000121072ACDF8B4C02C92716000F3F780E6
:1055400008361C462CB9119D1DB9099DE8077FF549
:10555000ADAA2C9B1899159D356001336144189DA7
:105560002D91072B75602C9300F3DE8106F1080264
:105570006442002C40F30B81102CA34D40F3488172
:10558000A34610260C46DDF83480DDF830A006E096
:105590000832ABF1100BBBF1100F40F33781013330
:1055A0001034072B2D942C9382E86000F0DD4046E8
:1055B00051462BAA01F01AFF00287FF41DA92D9C4B
:1055C0002C9B38AAE5E7099C93F8018044F020045D
:1055D00009F101090994FFF753B80D980C992BAA0A
:1055E00001F004FF00287FF407A9DDF8B4C038AE4D
:1055F000ACE40A9D013528F0200A00F0A580BAF13C
:10560000470F04D10A9D002D08BF01250A95DDE949
:105610001623DDF824C0002B4CF4807CCDF848C064
:10562000C0F29C81DDE91645CDE920454FF0000B25
:10563000B8F1660F00F09B81B8F1460F00F0A98128
:10564000BAF1450F0ABF0A9C0A9D651C022025A9D4
:1056500026AA29AB8DE821000392049302910D98AC
:10566000DDE9202300F01CFBB8F1670F074602D0EC
:10567000B8F1470F05D1DDF824C01CF0010F00F090
:105680009C81BAF1460F07EB050400F01C81DDE9AF
:10569000200100220023FEF79DF9002840F005813B
:1056A000299B9C4206D930215A1C29921970299BAA
:1056B0009C42F9D8DB1BBAF1470F119300F0ED8043
:1056C000B8F1650F40F3F281B8F1660F00F0688120
:1056D000259C1494119C149DAC4200F33281DDF89A
:1056E00024C01CF0010F40F0AD8125EAE5732C4683
:1056F0004FF06708BBF1000F40F0B280129D0B9392
:105700000995CDF828B09DF88FA0FFF7F4B80D9853
:105710004021FEF7C1F920602061002800F0BF8120
:10572000DDF830C04023CCF81430FEF763BF0D988D
:105730000C992BAA01F05AFE00287FF45DA8259C45
:10574000DDF8B4C038AEFDE606240A945FE7109D8C
:105750002C68043510950025FFF78CB8DDF824C0BF
:105760001CF0400F00F08780109C0E9D23680434CD
:1057700010941D80FEF74EBF0D980C992BAA01F0D6
:1057800035FE00287FF438A82D992C9B38AADDF827
:1057900044C0119C176001338C44072BCDF8B4C072
:1057A0002C9354603FF792AC02F10806FFF77EB9E4
:1057B000CDF828A0FEF7D8FE109520EAE07C0A9DDF
:1057C000CDF82CC0044614959DF88FA0FFF793B830
:1057D0000D980C992BAA01F009FE00287FF40CA863
:1057E000DDF8B4C038AECCE40D980C992BAA01F0CA
:1057F000FDFD00287FF400A8259CDDF8B4C038AE7C
:10580000AAE500BF808100003081000021465C468F
:1058100001332144072B2D912C9315605460ABDC90
:105820000832B4E70D980C992BAA01F0DFFD00288F
:105830007EF4E2AF259C1199DDF8B4C00C1B38AEA4
:105840009FE50A9C1497062C28BF062424EAE47CD2
:10585000BA460A971095CDF82CC0974FFFF74BB872
:10586000129D09954FF02D0A00250B938DF88FA0FE
:105870000A95FFF743B8DDF840C00E9CDCF8003015
:105880000CF1040CCDF840C01C60FEF7C3BE4FF015
:105890002D0A8DF88FA0FFF78FBA259BDC1C19DB32
:1058A0000A9C9C4216DB149314E7234602E724EA81
:1058B000E47CCDF82CC00A9C10950A9014909DF8B9
:1058C0008FA0FFF718B83B78302B00F0AD80259DF6
:1058D0002C44DCE6A8F10208013B002B2593BABF5B
:1058E0005B422D222B22092B8DF89C808DF89D2068
:1058F00065DC303330228DF89F308DF89E2028AB48
:10590000119D119C27AA9A1A012D1992144440F353
:10591000B7800134002524EAE4731495EAE60024F4
:1059200081460A94FEF7AEBE0D980C992BAA01F0A1
:105930005DFD00287EF460AF259C2D992C9B38AA34
:1059400016E6149C119D002CD4BFC4F1020401245E
:105950002C4424EAE4734FF06708CBE617991698B5
:10596000209001F1004121914FF02D0B60E60A9D3E
:105970000195032025A926AA29AB00900392049340
:1059800002910D98DDE9202300F08AF90A9D07466F
:1059900077E60A9C0194032025A926AA29ABECE707
:1059A000259D1495002D0A9C63DDB4BB099DE80775
:1059B00033D4149C24EAE4739CE6299B7AE60DF127
:1059C000AA003E4DDA1785FB0351C2EBA10101EBA2
:1059D00081040246A3EB440303F13000092910704F
:1059E0000B4602F1FF30ECDC01F130030DF1AB04AA
:1059F000D9B2844202F8011C5AD90DF19D00134618
:105A000001E013F8011BA34200F8011FF9D10DF5C5
:105A1000907CC2EB4C03F63B72E70A9D6C1C149D14
:105A20002C4424EAE47365E6DDE92001002200232A
:105A3000FDF7D0FF00287FF44AAFC5F10105259599
:105A40002C4424E6149D6C1C24EAE4734FF0670890
:105A500050E6109DDDF840C02D6899F801800A9548
:105A60000CF10403002D10938146BEF609AEFEF73B
:105A700004BE7CB9099DE9070CD401231C4639E614
:105A8000DDF824C01CF001037FF443AF149324EA33
:105A9000E4732FE60A9DAC1C24EAE4732AE60D9D0C
:105AA0000C232B604FF0FF30FEF7AEBE259B13E7B3
:105AB0000DF19E0324E700BF7881000067666666EB
:105AC000F0B5ADF5057D04AD00934FF400741346B9
:105AD0000F4603AA29460394064601F007FD044633
